:10005F000E11131519110E0E11131519110E1F0470
:10006F000404140C041F08040201110E0E110106E2
:10007F0001110E021F12080402011E0101011E10C0
:10008F001F0E11111E10110E0404040201011F0E88
:0D009F0011110E11110E0E01010F11110EA5
:10000300E4F50AE4F509E4F508E50A75F007A42424
:1000130066F582E43400F583E5822508F582E4354C
:1000230083F583E493F580E4F5B07F01FE1200AC21
:10003300AF087401A807088002C333D8FCF5B005E4
:1000430008E508C3940740C10509E509C3948E4038
:0C005300B5050AE50AC3940A40A980A480
:1000AC00E4FDFCC3ED9FEC9E5015E4FBFA0BBB008A
:0F00BC00010AEB647B4A70F50DBD00010C80E476
:0100CB002212
:030000000200CC2F
:0C00CC00787FE4F6D8FD75810A0200037D
:00000001FF
